:020000040800F2
:10000000C00D0020CD050008D1030008D30300086F
:10001000D7030008DB030008DF030008000000002E
:10002000000000000000000000000000E3030008E2
:10003000E503000800000000E7030008E9030008EA
:10004000E7050008E7050008E7050008E7050008E0
:10005000E7050008E7050008E7050008E7050008D0
:10006000E7050008E7050008E7050008E7050008C0
:10007000E7050008E7050008E7050008E7050008B0
:10008000E7050008E7050008E7050008E7050008A0
:10009000FD480008E7050008E7050008E705000837
:1000A000E7050008E7050008E7050008E705000880
:1000B000573E00083F3E0008A3390008E705000846
:1000C000E7050008E7050008E7050008E705000860
:1000D000E7050008A3280008E70500081B2A000818
:1000E000E7050008E7050008E7050008E705000840
:1000F000E7050008E7050008E7050008E705000830
:10010000E7050008E7050008E7370008E7050008ED
:10011000E7050008593F0008B1580008E705000846
:10012000E7050008E7050008E7050008E7050008FF
:1001300000F002F800F05FF80AA090E8000C82449A
:100140008344AAF10107DA4501D100F054F8AFF277
:10015000090EBAE80F0013F0010F18BFFB1A43F0A5
:10016000010318479C960000BC9600000A444FF01B
:10017000000C10F8013B13F0070408BF10F8014B06
:100180001D1108BF10F8015B641E05D010F8016B4B
:10019000641E01F8016BF9D113F0080F1EBF10F8AF
:1001A000014BAD1C0C1B09D16D1E58BF01F801CBD2
:1001B000FAD505E014F8016B01F8016B6D1EF9D555
:1001C0009142D6D37047000000230024002500266A
:1001D000103A28BF78C1FBD8520728BF30C148BFAA
:1001E0000B607047642906F0CB80002070471FB574
:1001F0001FBD10B510BD06F0E7F91146FFF7F7FF78
:1002000000F00EF806F005FA03B4FFF7F2FF03BCA6
:1002100002F0ECFA30BF72B662B680F3088870471D
:1002200008B502F01BF9012002F072FA02F0E4FCBA
:10023000022002F083F9002141F61F4003F076FC12
:10024000472142F20F7003F0D1FC02F059FF03F096
:100250001DFD03F07FFD01204E49087000204E492E
:10026000087001204D4908704FF4FA7002F033F91C
:1002700000BF04F0E9FE0028FBD10623032202217F
:100280000090012004F0E4F803F025F804F05EFC8F
:1002900004F04BFE0020424908604249086041F6E4
:1002A0001F41632003F0E8F804203F49086002F092
:1002B000DAFC6DE004F029FD3C490860084600685E
:1002C00058B93B480068042807D13A48007808B973
:1002D000012000E00020374908703448006898B9D0
:1002E000334800680D280FD12F480068012805DD2C
:1002F0002D480068401E2C49086005E02A48006827
:10030000012801D1284908602848006898B9284880
:1003100000680F280FD124480068052805DA224814
:100320000068401C2049086005E01F480068042858
:1003300001D11D4908601F480078012814D1072009
:1003400004F006FD1C490860082004F001FD1B496B
:100350000860052004F0FCFC19490860062004F040
:10036000F7FC1849086000E000BF04F069FF05F0E1
:10037000F5FB0120144908700C4800680C4908601E
:1003800000201249087000BF0F4800780028FBD1F8
:1003900090E7000003000020070000200600002076
:1003A000180000201C0000208C0000208400002089
:1003B0008800002005000020740000207800002044
:1003C0007C00002080000020310000203000002050
:1003D000704700BFFEE700BFFEE700BFFEE700BFBB
:1003E000FEE7704770477047704700000CB500206B
:1003F000019000906C48006840F480306A490860C1
:1004000000BF6948006800F4003000900198401C6B
:100410000190009818B90198B0F5A06FF1D1624829
:10042000006800F4003010B10120009001E00020CD
:1004300000900098012843D15C48006840F010000B
:100440005A4908600846006820F003000860084622
:10045000006840F002000860534840685249486014
:100460000846406848600846406840F4806048603C
:100470000846406820F47C1048600846406840F414
:10048000E81048600846006840F08070086000BFCF
:100490004548006800F000700028F9D042484068E4
:1004A00020F00300404948600846406840F00200E0
:1004B000486000BF3C48406800F00C000828F9D1B3
:1004C0000CBD10B5FFF792FF10BD10B5364800689F
:1004D00040F001003449086008464068344908404B
:1004E0003149486008460068324908402E49086092
:1004F0000846006820F4802008600846406820F420
:10050000FE0048604FF41F008860FFF7DAFF4FF0ED
:1005100000602949086010BD10B5002100200022AC
:10052000214B5B6803F00C0121B1042906D0082996
:1005300028D107E0214B224C236027E01F4B204CA1
:10054000236023E0184B5B6803F47010164B5B6864
:1005500003F48032022303EB904022B9194B43434A
:10056000174C23600DE0104B5B6803F4003323B19C
:10057000144B4343124C236003E0104B4343104C95
:10058000236003E00D4B0E4C236000BF00BF064B01
:100590005B68C3F303130C4CE15C094B1B68CB4055
:1005A000074C236010BD00000010024000200240F4
:1005B0000000FFF8FFFFF6FE08ED00E000127A00F1
:1005C000C800002000093D00CC00002009488047F9
:1005D00009480047FEE7FEE7FEE7FEE7FEE7FEE725
:1005E000FEE7FEE7FEE7FEE704480549054A064B3D
:1005F00070470000CB04000831010008C00700204C
:10060000C00D0020C0090020C0090020314901436D
:10061000314A1160704770B5002100230F22C47861
:1006200004B32D4C246804F4E064C4F5E064210AAA
:10063000C1F10403CA40447804FA03F184781440F9
:1006400021430901254C0678A155047804F01F05C3
:100650000124AC4005786D11AD0005F1E025C5F829
:10066000004109E0047804F01F050124AC401C4D52
:100670000678761145F8264070BD1A4A0A400243B2
:10068000154B1B1F1A60704739B1134A121D1268AF
:100690000243114B1B1D1A6006E00F4A121D12681F
:1006A00082430D4B1B1D1A607047042808D14FF080
:1006B000E021096941F004014FF0E022116107E0F7
:1006C0004FF0E021096921F004014FF0E0221161AF
:1006D000704700000000FA050CED00E000E400E0C7
:1006E00080E100E080FFFF1F10B50446FA48844215
:1006F00008D10121401500F055FD0021601500F0E2
:1007000051FD17E0F548844208D10121001500F0A1
:1007100049FD0021201500F045FD0BE0F048844222
:1007200008D10121C80300F03DFD00214FF4004035
:1007300000F038FD10BD30B502460020002350689F
:10074000E84C20400D790C6844EA052420435060B1
:100750009068E54C2040D1E902542C434D7944EA9D
:10076000450420439060D06A20F470000C7C641E25
:10077000E4B2234340EA0350D06230BD002101605F
:10078000017141718160C16001210174704721B123
:10079000826842F00102826003E0826822F0010276
:1007A0008260704721B1826842F48072826003E007
:1007B000826822F480728260704710B50023CBB249
:1007C0001AB144681C43446002E044689C4344609E
:1007D00010BD816841F0080181607047014600202A
:1007E0008A6802F008020AB1012000E00020704788
:1007F000816841F0040181607047014600208A68E9
:1008000002F004020AB1012000E00020704721B18B
:10081000826842F4A002826003E0826822F4A002AF
:1008200082607047014600208A6802F480020AB1A3
:10083000012000E00020704710B50A460021002387
:10084000416821F46041531E41EA4331416010BDCB
:1008500021B1426842F40062426003E0426822F43F
:10086000006242607047F0B504460D46002000214A
:10087000092D11DDE068A5F10A0606EB46070726FB
:1008800006FA07F18843A5F10A0606EB460603FAC5
:1008900006F10843E0600CE0206905EB45070726F8
:1008A00006FA07F1884305EB450603FA06F108430B
:1008B0002061072A0FDA606B561E06EB86071F269B
:1008C00006FA07F18843561E06EB860605FA06F17E
:1008D0000843606322E00D2A0FDA206BD61F06EB77
:1008E00086071F2606FA07F18843D61F06EB860601
:1008F00005FA06F10843206310E0E06AA2F10D0654
:1009000006EB86071F2606FA07F18843A2F10D06BB
:1009100006EB860605FA06F10843E062F0BD21B158
:10092000826842F48012826003E0826822F48012BE
:10093000826070470146C86C80B2704766484C3090
:100940000068704721B1426842F48062426003E06F
:10095000426822F480624260704721B1426842F4EA
:100960008052426003E0426822F480524260704745
:100970000A460021816821F4E041114381607047FB
:1009800021B1826842F40042826003E0826822F46E
:1009900000428260704721B1826842F40212826094
:1009A00003E0826822F40212826070470146002050
:1009B0008A6802F400120AB1012000E000207047AA
:1009C000F0B504461546002000220026092911DD55
:1009D000E068A1F10A0707EB470C072707FA0CF2BA
:1009E0009043A1F10A0707EB470703FA07F2104308
:1009F000E0600CE0206901EB410C072707FA0CF2DC
:100A0000904301EB410703FA07F210432061A06B0A
:100A1000C0F30156EF1C06F1010CA7EB0C0707EB26
:100A2000870C1F2707FA0CF29043EF1C06F1010C0C
:100A3000A7EB0C0707EB870701FA07F21043A06347
:100A4000F0BD10B50A4600210023816B21F440114E
:100A5000531E41EA0351816310BD08B50023009382
:100A60000090009B0B440093009B1A6008BD08B5E2
:100A7000024600200090009201F12800009B1844DB
:100A800000900098006880B208BD0A4600214168C5
:100A9000164B1940114341607047416282627047B2
:100AA0000A460021416821F01F011143416070474F
:100AB00040B109490831096841F40001064A083289
:100AC000116007E004490831096821F40001024A75
:100AD00008321160704700000024014000280140E6
:100AE000003C0140FFFEF0FFFDF7F1FFFFFD3FFF7F
:100AF0000246002013680B400BB1012000E00020EB
:100B00007047CA430260704770B502460020002358
:100B100000240B125568CEB205EA060415681D4084
:100B200015B10CB1012000E0002070BD00220A12B6
:100B3000D34303607047000010B50446CC4884429C
:100B400008D10121042000F02DFB0021042000F039
:100B500029FB46E0C748844208D10121082000F063
:100B600021FB0021082000F01DFB3AE0C24884422E
:100B700008D10121102000F015FB0021102000F009
:100B800011FB2EE0BD48844208D10121202000F055
:100B900009FB0021202000F005FB22E0B848844238
:100BA00008D10121402000F0FDFA0021402000F092
:100BB000F9FA16E0B348844208D10121802000F000
:100BC000F1FA0021802000F0EDFA0AE0AE488442FC
:100BD00007D10121801500F0E5FA0021A01500F0F1
:100BE000E1FA10BD10B50121084600F0DBFA002142
:100BF000012000F0D7FA10BD2DE9F0410246002592
:100C00000026002000230024002791F803C00CF0E8
:100C10000F0591F803C00CF0100CBCF1000F03D0CD
:100C200091F802C04CEA050591F800C0BCF1000F34
:100C300031D0146800202BE04FF0010C0CFA00F3C7
:100C4000B1F800C00CEA03069E4220D183004FF0A9
:100C50000F0C0CFA03F7BC4305FA03FC4CEA04043E
:100C600091F803C0BCF1280F06D14FF0010C0CFA2B
:100C700000FCC2F814C00AE091F803C0BCF1480FB0
:100C800005D14FF0010C0CFA00FCC2F810C0401C5A
:100C90000828D1D31460B1F800C0BCF1FF0F34DDD7
:100CA000546800202EE000F1080C4FF0010808FA0B
:100CB0000CF3B1F800C00CEA03069E4221D1830078
:100CC0004FF00F0C0CFA03F7BC4305FA03FC4CEA97
:100CD000040491F803C0BCF1280F05D100F1080C01
:100CE00008FA0CF8C2F8148091F803C0BCF1480F60
:100CF00007D100F1080C4FF0010808FA0CF8C2F80F
:100D00001080401C0828CED35460BDE8F0814FF617
:100D1000FF710180022181700421C1707047024679
:100D2000002093680B400BB1012000E000207047C9
:100D30000146886880B2704702460020D3680B40A5
:100D40000BB1012000E0002070470146C86880B266
:100D5000704701617047416170470AB1016100E06D
:100D600041617047C16070474FF480320A4382612D
:100D70008161826182698269704702460020434B2B
:100D800018684FF68073184040EA021008433F4B42
:100D9000186070473E49C8617047F0B50A460023A5
:100DA00000240021002500F00046B6F1004F02D1DA
:100DB000364EF16901E0354E7168C0F3034583B2E8
:100DC00000F44016B6F5401F08D121F070612F4E97
:100DD000766826F070662D4F7E6012E000F4801673
:100DE000B6F5801F06D1032606FA05F4A14341F0AB
:100DF000706106E0460D360103FA06F6B14341F094
:100E0000706122B1460D360103FA06F6314300F057
:100E10000046B6F1004F02D11C4EF16101E01B4EBD
:100E20007160F0BD30B500228B071C0F0F2303FA51
:100E300004F2164B08338C1053F824309343134CB0
:100E400008348D1044F8253023468C1053F8243094
:100E50008C07240F00FA04F423430C4C08348D1043
:100E600044F8253030BD0A49DC3108607047000085
:100E700000080140000C0140001001400014014036
:100E800000180140001C014000200140000001400A
:100E900000002042DF48006840F00100DD490860A2
:100EA00008464068DC490840DA494860084600685E
:100EB000DA490840D74908600846006820F48020D5
:100EC00008600846406820F4FE0048604FF41F00A8
:100ED00088607047CF49096821F48031CD4A11609C
:100EE0001146096821F480211160B0F5803F03D0DC
:100EF000B0F5802F0ED106E0C649096841F4803173
:100F0000C44A116007E0C349096841F4A021C14AFD
:100F1000116000E000BF00BF704710B5014600221D
:100F2000002300204A11012A02D1BA4C236806E0AE
:100F3000022A02D1B74C236A01E0B64C636A01F081
:100F40001F02012494401C400CB1012000E000204D
:100F500010BD38B5002000900024002500BF3120CE
:100F6000FFF7DBFF05460098401C00900098B0F5A5
:100F7000A06F01D0002DF2D03120FFF7CEFF08B1D5
:100F8000012400E00024204638BD01460020A14A8B
:100F9000106820F0F80040EAC10010607047A049D6
:100FA00008607047024600209A4B586820F47C1075
:100FB00042EA01031843974B586070479849086606
:100FC000704701460020934A506820F00300084310
:100FD000506070478F48406800F00C007047014631
:100FE00000208C4A506820F0F000084350607047A1
:100FF00001460020874A506820F4E06008435060B2
:10100000704701460020834A506820F4605040EA4F
:10101000C1005060704729B17E4A527A02437D4B2D
:101020005A7204E07B4A527A82437A4B5A72704772
:101030007B49D8310860704701460020754A5068E6
:1010400020F440400843506070470021714A20322C
:101050001170704A82F82010012802D004280AD1A9
:1010600004E001216B4A2032117005E00521694A34
:101070002032117000E000BF00BF7047694908606E
:1010800070476449096A0143624A116270476549C1
:1010900044390860704730B5002100220024002345
:1010A0005C4D6D6805F00C0121B1042905D00829BB
:1010B00023D105E05C4D056022E05B4D05601FE03B
:1010C000544D6D6805F47012524D6D6805F480340E
:1010D000022505EB92421CB9544D554305600BE0C7
:1010E0004C4D6D6805F400351DB1504D55430560FC
:1010F00002E04D4D5543056002E04B4D056000BFD9
:1011000000BF444D6D6805F0F0010909484D6B5C66
:101110000568DD4045603F4D6D6805F4E061090AF2
:10112000434D6B5C4568DD4085603A4D6D6805F464
:101130006051C90A3E4D6B5C4568DD40C560354D68
:101140006D6805F44041890B3A4D6B5CC568B5FB91
:10115000F3F5056130BD29B12E4A526902432D4B8A
:101160005A6104E02B4A526982432A4B5A61704704
:1011700029B1284A92690243264B9A6104E0254A24
:1011800092698243234B9A61704729B1214AD269FF
:101190000243204BDA6104E01E4AD26982431D4BB0
:1011A000DA61704729B11B4AD2680243194BDA60F1
:1011B00004E0184AD2688243164BDA60704729B1BE
:1011C000144A12690243134B1A6104E0114A12696E
:1011D0008243104B1A6170471249403908607047CA
:1011E0000F49C86470470B49C87170470948406A85
:1011F00040F0807007494862704701460020054A68
:1012000092680A400AB1012000E0002070470149BD
:1012100088727047001002400000FFF8FFFFF6FEE2
:10122000000042428004424200127A0000093D0060
:10123000DC000020EC00002010B50446FE4884428B
:1012400008D10121C014FFF7ADFF0021E014FFF722
:10125000A9FFC4E0B4F1804F08D101210846FFF78F
:10126000AEFF00210120FFF7AAFFB8E0F348844257
:1012700008D101210220FFF7A2FF00210220FFF781
:101280009EFFACE0EE48844208D101210420FFF724
:1012900096FF00210420FFF792FFA0E0E948844276
:1012A00008D101210820FFF78AFF00210820FFF75D
:1012B00086FF94E0E448844208D101211020FFF722
:1012C0007EFF00211020FFF77AFF88E0DF4884428C
:1012D00008D101212020FFF772FF00212020FFF715
:1012E0006EFF7CE0DA48844208D101214014FFF708
:1012F00059FF00216014FFF755FF70E0D548844284
:1013000009D10121C804FFF74DFF00214FF400204F
:10131000FFF748FF63E0D048844209D10121080566
:10132000FFF740FF00214FF48010FFF73BFF56E02E
:10133000CA48844209D101214805FFF733FF002143
:101340004FF40010FFF72EFF49E0C548844208D152
:1013500001214020FFF733FF00214020FFF72FFF3E
:101360003DE0C048844208D101218020FFF727FFDB
:1013700000218020FFF723FF31E0BB48844208D1E1
:1013800001218015FFF71BFF0021A015FFF717FFB4
:1013900025E0B648844209D101210804FFF702FF85
:1013A00000214FF48030FFF7FDFE18E0B048844282
:1013B00009D101214804FFF7F5FE00214FF4003068
:1013C000FFF7F0FE0BE0AB48844208D1012188040E
:1013D000FFF7E8FE00214FF48020FFF7E3FE10BD89
:1013E00000220288944B98420ED0994B98420BD021
:1013F000B0F1804F08D0914B984205D0904B984265
:1014000002D0904B984204D14FF68F731A404B880C
:101410001A438D4B984207D08C4B984204D04FF61C
:10142000FF431A40CB881A4302808B8883850B8840
:101430000385814B98420BD0854B984208D08B4B4B
:10144000984205D08A4B984202D08A4B984201D1EB
:101450000B7A038601238382704770B50024002233
:101460000023058C4FF6FE7635400584028C838878
:10147000048B4FF68F752C40B51E2C400D882C43E5
:10148000751E2A400D892A434D882A436A4DA84279
:101490000BD06F4DA84208D0744DA84205D0744DB2
:1014A000A84202D0734DA84213D14FF6F7752A40D7
:1014B0004D892A434FF6FB752A408D882A434FF603
:1014C000FF652B404FF6FF552B408D892B43CD896F
:1014D0002B4383800483CD888586028470BD70B5DC
:1014E000002400220023058C4FF6EF76354005845A
:1014F000028C8388048B48F6FF752C404FF6FF451D
:101500002C400D884FF6FF7606EA05252C434FF652
:10151000DF752A400D8906EA05152A434D8806EA3B
:1015200005152A43444DA84202D0494DA8421DD179
:101530004FF67F752A404D894FF6FF7606EA05156E
:101540002A434FF6BF752A408D8806EA05152A43BF
:101550004FF6FF352B404FF2FF752B408D8906EA81
:1015600085052B43CD8906EA85052B4383800483BB
:10157000CD880587028470BD70B500240022002349
:10158000058C4FF6FF6635400584028C8388848B7A
:101590004FF68F752C404FF6FC752C400D882C4370
:1015A0004FF6FF552A400D894FF6FF7606EA0525CE
:1015B0002A434D8806EA05252A431F4DA84202D03A
:1015C000234DA8421DD14FF2FF752A404D894FF699
:1015D000FF7606EA05252A434FF6FF352A408D8817
:1015E00006EA05252A434EF6FF752B404DF6FF759A
:1015F0002B408D8906EA05152B43CD8906EA051592
:101600002B4383808483CD888587028470BD70B529
:10161000002200230024058C4EF6FF763540058419
:10162000038C8488828B48F6FF752A404FF6FF456D
:101630002A400D8820E00000002C014000040040FA
:1016400000080040000C0040001000400014004062
:1016500000340140004C0140005001400054014062
:1016600000180040001C00400020004000400140E5
:1016700000440140004801404FF6FF7606EA052588
:101680002A434DF6FF752B400D8906EA05352B439D
:101690004D8806EA05352B43FA4DA84202D0FA4D93
:1016A000A84208D14BF6FF752C408D894FF6FF7686
:1016B00006EA85152C4384808283CD88A0F84050AB
:1016C000038470BD828B4FF2FF331A408283828B7A
:1016D0004FF6FF7303EA01231A4382837047F0B584
:1016E0000C461546002200210026078C4EF6FF7C92
:1016F00007EA0C070784828B018C4FF6FF7707EA15
:10170000043640F6FF473A404FF6FF7707EA0527D1
:101710003A434FF6FF7707EA03373A43D94FB842C7
:101720000ED0D94FB8420BD0B0F1804F08D0D74F70
:10173000B84205D0D64FB84202D0D64FB84206D1F3
:101740004DF6FF77394046F48057394305E047F6B8
:10175000FF57394044F48057394382830184F0BDF8
:10176000828B4FF6F3731A408283828B0A43828303
:101770007047F0B50C461546002200210026078C64
:101780004FF6FF6C07EA0C070784828B018C4FF63B
:10179000FF7707EA04264FF60C773A404FF6FF77BB
:1017A00007EA03172F433A43B64FB8420ED0B64F5D
:1017B000B8420BD0B0F1804F08D0B44FB84205D03A
:1017C000B34FB84202D0B34FB84206D14FF6FF57DD
:1017D000394046F48077394305E04FF2FF573940EE
:1017E00044F48077394382830184F0BD028B4FF249
:1017F000FF331A400283028B4FF6FF7303EA012383
:101800001A4302837047F0B50C46154600220021AA
:101810000026078C4FF6EF7C07EA0C070784028B43
:10182000018C4FF6FF7707EA041640F6FF473A406F
:101830004FF6FF7707EA03373A434FF6FF7707EA99
:1018400005273A438F4FB8420ED08F4FB8420BD086
:10185000B0F1804F08D08D4FB84205D08C4FB842C0
:1018600002D08C4FB84206D14FF6DF77394046F0B0
:101870001007394305E04FF65F77394044F0100711
:10188000394302830184F0BD028B4FF6F3731A4093
:101890000283028B0A4302837047F0B50C4615465B
:1018A00000220021068C4FF6FE773E400684028B14
:1018B000018C4FF60C7632407E1C06EA03162E434E
:1018C0003243704EB0420ED06F4EB0420BD0B0F1EA
:1018D000804F08D06D4EB04205D06D4EB04202D060
:1018E0006C4EB04206D14FF6FD76314044F0010611
:1018F000314305E04FF6F576314044F001063143BF
:1019000002830184F0BD70B505460C465D488542F2
:101910000ED05D4885420BD0B5F1804F08D05B48B2
:10192000854205D05A48854202D05A48854200D1A6
:1019300000E000BF208850B92389A288618828462A
:10194000FFF7ABFFE1882846FFF79EFF25E02088E0
:1019500004280AD12389A28861882846FFF753FF0B
:10196000E1882846FFF742FF17E0208808280AD1BF
:101970002389A28861882846FFF7FBFEE188284674
:10198000FFF7EEFE09E02389A28861882846FFF769
:10199000A6FEE1882846FFF795FE70BD2DE9F041CF
:1019A00005460C4600260127608808B9022600E09B
:1019B0000026A088012801D1022700E00127208805
:1019C000A0B92389A28861882846FFF766FFE188CD
:1019D0002846FFF759FF23893A4631462846FFF744
:1019E00012FFE1882846FFF701FF13E02389A28850
:1019F00061882846FFF707FFE1882846FFF7F6FED3
:101A000023893A4631462846FFF747FFE1882846B2
:101A1000FFF73AFFBDE8F0810A884B881A438B88AC
:101A20001A43CB881A430B891A434B891A438B8973
:101A30001A43A0F8442070474FF6FF7181800021BF
:101A40000180C18041800172704700210180418086
:101A50008180C180018141818181C18170470021E4
:101A600001804180012181800021C1800181704776
:101A70000021018041808180C1800181418181817B
:101A800070470000002C0140003401400004004079
:101A900000080040000C004021B1028842F0010221
:101AA000028004E002884FF6FE731A4002807047FD
:101AB00031B1B0F8442042F40042A0F8442005E0DF
:101AC000B0F84420C2F30E02A0F8442070471AB1C7
:101AD00083890B43838102E083898B438381704731
:101AE0008182704741EA0203A0F8483070471AB17A
:101AF00083890B43838102E083898B438381704711
:101B000001894FF6F8721140018170470A460021A1
:101B100001894FF68F73194011430181704730B529
:101B200004460D4629462046FFF7F0FF208940F085
:101B30000700208130BD2DE9F04104460D461646D0
:101B40001F46602D06D13B46012231462046FFF755
:101B50005AFE05E03B46012231462046FFF79DFE36
:101B600029462046FFF7D2FF208940F00700208158
:101B7000BDE8F08130B50C4600210189C9B24FF6AD
:101B8000FF7505EA0325154325432943018130BD2F
:101B90002DE9F04105460E46174698460024434677
:101BA0003A4631462846FFF7E5FF2C894FF6F87094
:101BB000044044F007044FF68F70044044F0700472
:101BC0002C81BDE8F081F0B504460D4616461F464F
:101BD0003B46324629462046FFF7CCFF208940F499
:101BE00080402081F0BD0185828270470A46002135
:101BF00001884FF68F731940114301807047F0B58B
:101C00000C4615461E460021002200230189028B46
:101C1000038C4FF6F877394021434FF6FC473A40A2
:101C200040F201173A434FF6DD773B404FF6FF771E
:101C300007EA06172F433B43018102830384F0BD6B
:101C40000A460021018B4FF68F731940114301831F
:101C500070470A460021018B48F6FF7319404FF682
:101C6000FF7303EA02231943018370470A460021E8
:101C7000818B4FF68F7319401143818370470A4659
:101C80000021818B48F6FF7319404FF6FF7303EA7A
:101C9000022319438183704721B1028842F08002F8
:101CA000028004E002884FF67F731A40028070477A
:101CB00021B1828842F00402828004E082884FF6DB
:101CC000FB731A408280704721B1828842F008027B
:101CD000828004E082884FF6F7731A408280704752
:101CE00021B1828842F00102828004E082884FF6AE
:101CF000FE731A40828070470A460021018B4FF61E
:101D0000F77319401143018370470A460021018B84
:101D10004FF2FF7319404FF6FF7303EA0223194392
:101D2000018370470A460021818B4FF6F7731940F3
:101D30001143818370470A460021818B4FF2FF7364
:101D400019404FF6FF7303EA02231943818370475A
:101D50000A460021018B4FF6FB73194011430183A2
:101D600070470A460021018B4FF6FF3319404FF6AA
:101D7000FF7303EA02231943018370470A460021D7
:101D8000818B4FF6FB7319401143818370470A46DC
:101D90000021818B4FF6FF3319404FF6FF7303EAA2
:101DA00002231943818370470A460021018B4FF6B5
:101DB0007F7319401143018370470A460021018B4C
:101DC000C1F30E014FF6FF7303EA022319430183A7
:101DD00070470A460021818B4FF67F7319401143EB
:101DE000818370470A460021818BC1F30E014FF6B3
:101DF000FF7303EA02231943818370470A460021D7
:101E0000018C4FF6FD7319401143018470470A4657
:101E10000021018C4FF6F77319401143018470477C
:101E20000A460021018C4FF6DF7319404FF6FF730D
:101E300003EA02131943018470470A460021018C0A
:101E40004FF67F7319404FF6FF7303EA02131943ED
:101E5000018470470A460021018C4FF6FF53194058
:101E60004FF6FF7303EA02231943018470470A46C1
:101E70000021018C4FF2FF7319404FF6FF7303EA04
:101E800002231943018470470A460021018C4DF654
:101E9000FF7319404FF6FF7303EA023319430184BD
:101EA000704730B5002301248C40A3B2048C9C43BE
:101EB0000484048C02FA01F5ADB22C43048430BDD5
:101EC00030B5002304248C40A3B2048C9C430484CA
:101ED000048C02FA01F5ADB22C43048430BD70B518
:101EE0000346002000241846183001258D40ACB26E
:101EF0001D8CA5431D8409B1082909D100EB61009F
:101F0000056825F0700505600568154305600EE05D
:101F10000D1FC5F34E052844056825F4E04505600E
:101F200005684FF6FF7606EA02263543056070BD68
:101F300021B1028842F00202028004E002884FF6DA
:101F4000FD731A400280704721B1028842F00402FA
:101F5000028004E002884FF6FB731A40028070474B
:101F600021B1828842F08002828004E082884FF6AC
:101F70007F731A408280704702884FF6F7731A40C9
:101F8000028002880A430280704782884FF68F736E
:101F90001A40828082880A438280704702894FF605
:101FA000F8731A40028102890A430281704702894C
:101FB0004FF67F731A40028102890A4302817047FB
:101FC000818470478185704781867047018770479B
:101FD00081877047A0F84010704702884FF6FF4392
:101FE0001A40028002880A43028070470146888EA8
:101FF00070470146088F70470146888F7047014639
:10200000B1F8400070470146888C70470146088D42
:10201000704702460020138A0B400BB1012000E0FC
:1020200000207047CA430282704730B50246002044
:1020300000230024158A05EA0103958905EA0104B5
:1020400013B10CB1012000E0002030BDCA43028270
:102050007047000010B50446FB48844209D10121B5
:102060008803FFF79FF800214FF48040FFF79AF8AC
:1020700032E0F648844209D101214804FFF79FF875
:1020800000214FF40030FFF79AF825E0F048844231
:1020900009D101218804FFF792F800214FF4802034
:1020A000FFF78DF818E0EB48844209D10121C804FC
:1020B000FFF785F800214FF40020FFF780F80BE0D0
:1020C000E548844208D101210805FFF778F800218E
:1020D0004FF48010FFF773F810BD2DE9F04786B07C
:1020E00005460E460024A24600BFA1460027B0893F
:1020F00000B100BF2F462C8A4CF6FF700440F088D8
:1021000004432C82AC894EF6F3100440B088318928
:102110000843718908430443AC81AC8A4FF6FF4001
:102120000440B0890443AC8201A8FEF7B4FFC6485E
:10213000874202D1DDF810A001E0DDF80CA0A889EB
:1021400000F4004040B10AEBCA0000EB0A1031680D
:102150004900B0FBF1F807E00AEBCA0000EB0A10F7
:1021600031688900B0FBF1F86420B8FBF0F004019D
:102170002009642101FB1089A88900F4004040B1C6
:10218000322000EBC900B0FBF1F000F0070004437F
:1021900008E0322000EB09106421B0FBF1F000F000
:1021A0000F0004432C8106B0BDE8F0874FF41651B0
:1021B000016000218180C18001810C2141810021C9
:1021C0008181704710B502460020108A4FF2FF034C
:1021D00018400B884C8823438C882343CC882343A6
:1021E0001843108210BD0021018041808180C18090
:1021F000704721B1828942F40052828104E08289D1
:102200004DF6FF731A4082817047F0B503460024F3
:1022100000260025002040F66A17B94200D100BF11
:102220001846C1F3421401F01F06012707FA06F50C
:10223000012C01D10C3004E0022C01D1103000E05F
:1022400014301AB107682F43076002E00768AF43F4
:102250000760F0BD1AB1838A0B43838202E0838A50
:102260008B4383827047028A4FF6F0731A400282D2
:10227000028A0A430282704782894FF2FF731A4032
:10228000828182890A438281704721B1828942F02A
:102290000202828104E082894FF6FD731A40828136
:1022A0007047028A4FF6DF731A400282028A0A439D
:1022B0000282704721B1028A42F48042028204E025
:1022C000028A4BF6FF731A4002827047C1F308027C
:1022D0008280704701468888C0F308007047818972
:1022E00041F0010181817047028BD2B20283028BDF
:1022F00042EA012202837047028B02F47F4202838A
:10230000028B0A430283704721B1828A42F0200285
:10231000828204E0828A4FF6DF731A40828270471D
:1023200021B1828A42F01002828204E0828A4FF652
:10233000EF731A408282704721B1828A42F008020C
:10234000828204E0828A4FF6F7731A4082827047D5
:1023500021B1828942F40042828103E08289C2F382
:102360000E028281704721B1828A42F40062828229
:1023700004E0828A4FF2FF731A4082827047828A99
:102380004FF6FB731A408282828A0A438282704728
:1023900021B1828A42F00202828204E0828A4FF6F0
:1023A000FD731A408282704702460020B1F5007F1B
:1023B00000D100BF13880B400BB1012000E00020CA
:1023C000704701F40072B2F5007F00D100BFCA432C
:1023D0000280704770B502460024002300250020CB
:1023E00040F66A16B14200D100BFC1F3421501F0B8
:1023F0001F03012606FA03F3012D02D1968933400B
:1024000006E0022D02D1168A334001E0968A33405D
:102410000C12012606FA04F41688344013B10CB1EC
:10242000012000E0002070BD10B50022002340F61E
:102430006A14A14200D100BF0A1201249440A3B241
:10244000DC43048010BD000000380140004400401F
:1024500000480040004C00400050004010B56FF0B4
:102460000400FEF722F92E4800682E49B0FBF1F077
:102470002D4908700846007800EB4001C1EBC01000
:102480004FF6FF7101EAC0002849088010BD0146DF
:10249000254A12784A434FF0E0235A6100229A619C
:1024A0001A46126942F001021A6100BF4FF0E022A1
:1024B000106900F001021AB100F48032002AF5D050
:1024C0004FF0E022126922F001024FF0E0231A617E
:1024D00000229A6170470146144A12884A434FF01D
:1024E000E0235A6100229A611A46126942F0010201
:1024F0001A6100BF4FF0E022106900F001021AB12A
:1025000000F48032002AF5D04FF0E022126922F068
:1025100001024FF0E0231A6100229A617047000027
:10252000C800002000127A00F0000020F200002015
:10253000A34A0A400243A34B1A607047014607238F
:1025400023EA010212029F4B1B1D18684FF6FF037E
:1025500018409D4B184310439A4B1B1D1860704741
:102560002DE9F0410746884614461D462846FFF7E8
:10257000E5FFC5F1040007FA00F60F20284100EA44
:102580000800064306F00F06E21704EBD262521170
:10259000920002F1E022D2F800212146E31704EB79
:1025A000D3635B11A4EB431C012303FA0CF31A431E
:1025B0002046E31704EBD3635B119B0003F1E02398
:1025C000C3F800218148005D40EA06107F490855A4
:1025D000BDE8F08170B504460B46CE1701EB967648
:1025E000C6F38700CE1701EB9676B610A1EB8606F0
:1025F000B606350E764B9B6943F00103744EB3610A
:102600004FEAB63353F820300F26AE40B343714E35
:1026100046F82030334653F8203004FA05F61E43BE
:102620006C4B43F820606C4B1B6801268E40334393
:10263000694E336002F0010343B1674B0C331B68F2
:1026400001268E403343644E0C36336002F00203A1
:1026500043B1614B08331E6801238B401E435E4B20
:1026600008331E6070BD00B5002059490861C8607C
:102670001420486100208861C8610846006840F065
:1026800001000860084640685449084050494860C5
:1026900008460068524908404D49086008460068ED
:1026A00020F4802008600846406820F4FE0048605E
:1026B0000020886000214FF00060FFF739FF00BD67
:1026C00010B540480830006840F004003D4908312A
:1026D00008603F48C06940F080503D49C8614148AA
:1026E000406840F480703F4948600846006840F008
:1026F000040008600846006840F002000860FDF72A
:1027000089FD10BD3048001D2E49091D0860704725
:10271000014649062E4A926942F001022C4B9A6109
:102720002C4A083A526822F0E0622A4B083B5A6071
:102730001A4652680A435A60704730B5044600256D
:10274000FFF791FF2248006840F48030204908607C
:1027500000BF1F480068400C0028FAD04FF480608A
:102760001B494860A01EC4B20846406840EA844045
:1027700048600846406840F4803048601A48006865
:1027800040F03200184908601148006840F080703D
:102790000F49086000BF0E480068400E0028FAD0BC
:1027A0000B48406840F002000949486005E00848CD
:1027B0004068C0F3870505F00305022DF7D130BD51
:1027C00080FFFF1F08ED00E00000FA0500E400E0D4
:1027D0000010024008000140000401400000FFF822
:1027E000FFFFF6FE0070004000200240014600BFDF
:1027F000704700BFE84A128802F04002002AF9D070
:10280000C2B2E54B1B1D1A80704710B586B0044656
:10281000012144F20400FEF7ABFC4FF40070ADF868
:10282000140003208DF8160018208DF8170005A954
:10283000DA48FEF7E1F94FF48060ADF814000420A7
:102840008DF8170005A9D548FEF7D6F925208DF893
:10285000000000208DF8010001208DF802008DF8A5
:1028600003006846FDF7D7FE01940020ADF808008C
:10287000ADF80A00ADF80C00ADF810000C20ADF872
:102880000E0001A9C648FFF728FC012240F225519D
:10289000C348FFF7BAFC0121C148FFF7AAFC06B004
:1028A00010BD10B540F22551BD48FFF793FD00283B
:1028B0004FD040F22551BA48FFF7B6FDB94800782D
:1028C00050B9B9480078401CC0B2B74908700A280E
:1028D00002DD0120B3490870B148001D0088C4B270
:1028E000B248007868B9B24800785A2809D1B1488E
:1028F0000078A52805D10120AC4908700020AE4918
:102900000870AA48007801280FD1AC48AA49097874
:102910004454A9480078401CA7490870084600782C
:10292000082802D10020A1490870A1480078A149D7
:1029300008709F48047008219948FFF735FD012869
:1029400006D108219648FFF73CFD9548FFF7C2FCE9
:1029500000BF002010BD9049091D088000BF8E49AE
:10296000098801F040010029F9D0704710B586B000
:10297000044601210846FEF7FBFB01211020FEF76B
:10298000F7FB01218804FEF700FC01218C48FEF7CB
:1029900004FA4FF48060ADF8140003208DF816009F
:1029A00018208DF8170005A98648FEF725F94FF481
:1029B0000060ADF8140004208DF8170005A98148C7
:1029C000FEF71AF927208DF8000000208DF801008D
:1029D00001208DF802008DF803006846FDF71BFE0C
:1029E00001940020ADF80800ADF80A00ADF80C0025
:1029F000ADF810000C20ADF80E0001A96648FFF7F5
:102A00006CFB012240F225516348FFF7FEFB0121D8
:102A10006148FFF7EEFB06B010BD2DE9FF5F40F205
:102A200025515D48FFF7D6FC00287DD05A48001D8F
:102A300000886549087008460078412809DB084687
:102A40000078482805DC0846007840385F4908705F
:102A500002E000205D4908705B4800787B2802D1C5
:102A600001205B490870584800787D2802D1022077
:102A7000574908705648007801280AD15248007812
:102A80005449554A1278885453480078401C52499A
:102A900008704F48007802287CD14E48C0785028F2
:102AA00003D101204D49087067E04A484078232847
:102AB00063D0494800784A49087034E046490978AB
:102AC000474A1278881A05F0F4F8804642460B46C9
:102AD0000020444904F034F904460D464049097881
:102AE000491E3C4A515CA1F1300005F0E2F806466F
:102AF00022462B4605F044F982468B463A48006848
:102B000005F04EFC52465B46CDE9000104F08EFE16
:102B1000CDE9020104F058FE3349086030480078DE
:102B2000401E2F49087000E034E02D48007804284A
:102B3000C4DA28484078303809281DD2DFE800F090
:102B4000050C11161718191A1B002748006805F004
:102B5000B7FD264908600FE0234800682449086053
:102B60000AE0214800682349086005E004E003E02A
:102B700002E001E000E000BF00BF0020144908703F
:102B80001549087016490870174908603221114824
:102B900003F032FCBDE8FF9F004800400008014000
:102BA0000038014043000020FC00002044000020C9
:102BB000FA000020FB000020F90000203A0000206D
:102BC0001000140000100140F80000200200002056
:102BD000FD000020BC020020FE0000204500002077
:102BE000FF000020000024400001002070000020B1
:102BF000680000206C00002008B501210C20FEF7C1
:102C0000B7FA4FF48040ADF8000010208DF80300B3
:102C100003208DF8020069461C48FDF7EDFF2020D7
:102C2000ADF8000010208DF8030003208DF802009D
:102C300069461748FDF7E0FF08BD18B90021154A9D
:102C400011600FE014490968491C134A1160814260
:102C500008D110490968C943104AC2F8B8110021C7
:102C60000D4A1160704700200A4908600B48D0F8EF
:102C7000B801C043086000200949C1F89401084622
:102C8000D0F89401C043C1F894017047000C014092
:102C900000080140B8812142040100200080214247
:102CA0000000214208B501210820FEF761FA4FF427
:102CB0008040ADF8000048208DF8030069464B487D
:102CC000FDF79AFF08BD01464948006828B9494800
:102CD0000088401C474A108002E00020454A1080CE
:102CE0004348006828B94448007810B90120424A96
:102CF000107042480078B0B93F480078012807D1E9
:102D00003F480078401C3E4A107001203B4A10703A
:102D10003B480078022806D10020394A1070394A11
:102D200010800220704732480068012804D100203A
:102D3000314A1070314A10703148007801281CD196
:102D400030480088401C2F4A108010460088884276
:102D50000ADD28480088884206DA0020284A1070D8
:102D6000284A10800120DDE722480088884204DDDF
:102D70000020234A1070234A10800020D2E7224806
:102D8000007838B11A48006820B900201E49087040
:102D90000120704716480068012801D11A490870BF
:102DA0000020F6E71948008840B91148006828B9A2
:102DB00017480088401C1649088002E0002014498A
:102DC000088013480088C82807DD01200F490880C3
:102DD00000200F490880012070470C480088012816
:102DE00002D10020094908800020F5E7000C0140CD
:102DF000388121420E010020080100200901002035
:102E00000A0100200C010020100100201401002004
:102E10001201002010B50A461AB10123FB4C2360B1
:102E200002E00023F94C2360002117E00023F74C57
:102E30003034236000F0800323B10123F34C383495
:102E4000236003E00023F14C383423600123EF4C6E
:102E5000303423604306180E4B1CD9B20829E5DB39
:102E60000123EA4C236010BD30B500241CE004F1BE
:102E7000B001C8B20021FFF7CDFF00210846FFF7DF
:102E8000C9FF00211020FFF7C5FF002508E0E04939
:102E900001EBC501085D0121FFF7BCFF681CC5B24D
:102EA000802DF4DB601CC4B2082CE0DB30BD00B523
:102EB00000218D20FFF7AEFF00211420FFF7AAFFAD
:102EC0000021AF20FFF7A6FF00BD00B500218D2037
:102ED000FFF7A0FF00211020FFF79CFF0021AE208C
:102EE000FFF798FF00BD30B500240CE0002506E098
:102EF0000020C74901EBC5010855681CC5B2802DEB
:102F0000F6DB601CC4B2082CF0DBFFF7ADFF30BD70
:102F1000F0B5144600267F2801DC3F2900DDF0BD16
:102F20000B46CF1701EB5777FF10C7F10707FAB22F
:102F3000CF1701EB5777FF10A1EBC707FDB2C5F123
:102F400007070123BB40DEB24CB1B14B03EBC0031A
:102F50009B5C3343AE4F07EBC007BB5408E0AC4B60
:102F600003EBC0039B5CB343A94F07EBC007BB5403
:102F700000BFD4E72DE9F04F80460C4615461E46AB
:102F8000A346A5F12000C5B200273EE00C2E07D1D4
:102F900005EB45009F4901EB800010F8079004E025
:102FA0009D4800EB051010F807904FF0000A26E04E
:102FB00009F0800028B121464046099AFFF7A8FF92
:102FC00009E0099808B9012000E0002002462146E6
:102FD0004046FFF79DFF4FEA49604FEA1069601CC9
:102FE000C4B2A4EB0B00B04205D15C4608F101006D
:102FF00000F0FF0806E00AF1010000F0FF0ABAF154
:10300000080FD5DB00BF781CC7B2B742BEDBBDE8F6
:10301000F08F10B50246012000E050430B1EA1F1D5
:103020000104E1B2F9D110BD2DE9FF4F81B007468F
:1030300091461E460E9D4FF0000A002439E0301BD9
:10304000401EC1B20A20FFF7E4FFB9FBF0F00A21ED
:10305000B0FBF1F201FB1208BAF1000F16D1701E9D
:10306000A04213DDB8F1000F0ED10120AB4605EBF5
:10307000DB71491001FB04710090C8B22B4620227D
:103080000299FFF777FF12E04FF0010A0120AB46EB
:1030900005EBDB71491001FB04710090C8B208F127
:1030A0003001CAB22B460299FFF764FF00BF601CD3
:1030B000C4B2B442C3DB05B0BDE8F08F78B50546B5
:1030C0000E46144618E07A2D03DD002506F11000A7
:1030D000C6B23A2E04DD002005460646FFF703FF80
:1030E0000120009022780C2331462846FFF742FF4A
:1030F00005F10800C5B2641C20780028E3D178BD32
:1031000008B501210820FEF733F84AF20300ADF8B4
:10311000000010208DF8030002208DF8020069469F
:103120003E48FDF769FD00203849091F086064200A
:10313000FFF7D1F901203A49C1F880010021AE2002
:10314000FFF768FE0021D520FFF764FE0021502024
:10315000FFF760FE0021A820FFF75CFE00213F2062
:10316000FFF758FE0021D320FFF754FE0021084648
:10317000FFF750FE00214020FFF74CFE00218D207C
:10318000FFF748FE00211420FFF744FE0021202015
:10319000FFF740FE00210220FFF73CFE0021A120A6
:1031A000FFF738FE0021C020FFF734FE0021DA20AF
:1031B000FFF730FE00211220FFF72CFE00218120B6
:1031C000FFF728FE0021EF20FFF724FE0021D92081
:1031D000FFF720FE0021F120FFF71CFE0021DB207D
:1031E000FFF718FE00213020FFF714FE0021A42075
:1031F000FFF710FE0021A620FFF70CFE0021AF20F4
:10320000FFF708FEFFF76FFE08BD00008481214232
:10321000EE020020E28B000856900008000C0140EE
:1032200000802142002000E0401C0A28FCDB70479F
:1032300010B504460723012221468648FDF713FBFB
:1032400001218448FDF7E3FA00BF02218148FDF720
:103250004FFC0028F9D07F48FDF76CFB10BD70B51E
:103260000024002501207C49086000207B49C1F82A
:103270008C01FFF7D7FF01207749091D0860002066
:103280007649C1F88801FFF7CDFF01207249086037
:1032900000207249C1F88C01FFF7C4FF00BF17E09E
:1032A00000206D490860FFF7BDFFFFF7BBFF0B2053
:1032B000FFF7BEFF00116A4921F81500681CC5B26E
:1032C00001206649C1F88801FFF7ACFF601CC4B259
:1032D000802CE5DB70BD00B587B001214FF4047090
:1032E000FDF746FF4FF40040FDF7A6FE0220ADF8C3
:1032F000040000208DF8070001A95A48FDF77CFC66
:103300005448FDF7F1F9002002908DF80C008DF87B
:103310000D004FF4602004900020059001208DF8EE
:10332000180002A94B48FDF706FA01214948FDF7AC
:103330002EFA4848FDF74DFA00BF4648FDF74EFA11
:103340000028FAD14348FDF753FA00BF4148FDF782
:1033500054FA0028FAD107B000BD2DE9F04F85B02E
:103360000120FFF765FF019004F0BAFC00224FF046
:103370008043CDE9020104F003FD804600223A4B70
:1033800004F0FEFC06460022384B04F0F9FC04462B
:103390000022374B04F006FB824604F05BFC0490ED
:1033A000049805B0BDE8F08F08B501211020FDF7A5
:1033B000DFFE0C20ADF8000010208DF80300022085
:1033C0008DF8020069462B48FDF716FC08BD00B5D4
:1033D00087B001214FF40470FDF7CAFE4FF400409E
:1033E000FDF72AFE0C20ADF8040000208DF8070040
:1033F00001A92048FDF700FC1648FDF775F90020EB
:1034000002908DF80C008DF80D004FF460200490B0
:103410000020059001208DF8180002A90D48FDF745
:103420008AF901210B48FDF7B2F90A48FDF7D1F9F5
:1034300000BF0848FDF7D2F90028FAD10548FDF78A
:10344000D7F900BF0348FDF7D8F90028FAD107B033
:1034500000BD0000002401408801224200002242F9
:10346000BC01002000080140000026400000594037
:103470000000B040001001407FB505460C46012118
:103480001020FDF782FEADF80850ADF8044001A908
:10349000F748FDF7A5FF01221146F548FEF717FB97
:1034A00036208DF8000000208DF8010001208DF8F5
:1034B00002008DF803006846FDF7ADF80121EC48E5
:1034C000FEF7EAFA7FBD30B589B005460C4601210A
:1034D0000420FDF75AFE01210820FDF749FEC02017
:1034E000ADF8200028208DF8230008A9E148FDF759
:1034F00083FB3020ADF8200010208DF8230002203F
:103500008DF8220008A9DB48FDF776FBADF81850CE
:10351000ADF814400020ADF81A00ADF8160005A96A
:10352000D548FDF75DFF0020ADF80800ADF80A00B2
:103530000120ADF80C000020ADF80E00ADF8100031
:1035400002A9CD48FEF7DFF90420ADF808000020FD
:10355000ADF80A000120ADF80C000020ADF80E0017
:10356000ADF8100002A9C448FEF7CDF91E208DF871
:10357000040000208DF805008DF8060001208DF86C
:10358000070001A8FDF747F801220721BA48FEF716
:103590009EFA0121B848FEF77FFA09B030BD30B578
:1035A00089B005460C4601210820FDF7EEFD0121FA
:1035B0001420FDF7DDFD0320ADF8200028208DF854
:1035C000230008A9AD48FDF717FB1120ADF8200036
:1035D00010208DF8230002208DF8220008A9A848A9
:1035E000FDF70AFBADF81850ADF814400020ADF817
:1035F0001A00ADF8160005A9A248FDF7F1FE00205B
:10360000ADF80800ADF80A000120ADF80C0000206C
:10361000ADF80E00ADF8100002A99A48FEF773F954
:103620000420ADF808000020ADF80A000120ADF834
:103630000C000020ADF80E00ADF8100002A9914872
:10364000FEF761F932208DF8040000208DF80500A6
:103650008DF8060001208DF8070001A8FCF7DBFFBC
:10366000012207218748FEF732FA01218548FEF73B
:1036700013FA09B030BD10B50120834908600F204E
:10368000FEF705FF00208149C1F8800180480078DD
:1036900000F08000E8B17E48007800F03F007D49EE
:1036A00008600846008800040860084600687A49F7
:1036B000098808447749086008460068AA214843F9
:1036C0004FF47A7190FBF1F0724908600020704964
:1036D000088001206C49103108600F20FEF7D7FEEA
:1036E00000206A49C1F890016C48007800F0800021
:1036F000E8B16A48007800F03F0069490860084670
:103700000088000408600846006866490988084483
:103710006349086008460068AA2148434FF47A715B
:1037200090FBF1F05E49086000205C4908800120B0
:103730005D4908600F20FEF7AAFE00205B49C1F832
:1037400094015B48007800F08000E8B158480078A8
:1037500000F03F00574908600846008800040860F0
:1037600008460068544909880844524908600846D8
:103770000068AA2148434FF47A7190FBF1F04D495B
:10378000086000204A49088001204749091F086055
:103790000F20FEF77CFE00204449C1F89001474805
:1037A000007800F08000E8B14448007800F03F0065
:1037B000434908600846008800040860084600681D
:1037C0004049098808443E49086008460068AA2123
:1037D00048434FF47A7190FBF1F0394908600020BA
:1037E0003649088010BD27491031088828490978D2
:1037F00001F0800100297BD100F00101D1B1244901
:10380000097801F04001A9B12149097801F03F018F
:103810003F290AD11E49098841F080011C4A1180C4
:103820004FF6FF711C4A118004E019490988491CB0
:10383000174A118000F00201C1B11549097801F061
:103840004001A1B11249098841F08001104A11805C
:103850000C4934310988104A11800A4920310988FD
:1038600021F00201074A2032118041E040E02BE0C4
:1038700000100040000C014000080040000801401A
:1038800000100140000C0040800122420000224252
:1038900016010020B4000020180100201A010020A9
:1038A000B80000201C0100209481214200802142A8
:1038B0001E010020BC000020200100202201002069
:1038C000C00000202401002000218E4A11808E4A71
:1038D00011808C49098841F040018A4A11800021F9
:1038E0008A4A1180111F098841F00201121F1180BC
:1038F0008749097801F0800100294DD100F00101CC
:10390000D1B18349097801F04001A9B18049097812
:1039100001F03F013F290AD17D49098841F080012A
:103920007B4A11804FF6FF717A4A118004E0784992
:103930000988491C764A118000F0040161B374497A
:10394000097801F0400199B17149098841F080017D
:103950006F4A11806D49143109886E4A11806B4994
:10396000091F098821F02001684A121F118013E005
:103970000021674A1180674A11806549098841F032
:103980004001634A11800021604A1180111F09889B
:1039900041F02001121F118000215C4A143A11806D
:1039A00070475D4908885D49097801F08001002968
:1039B0004ED100F00101D1B15849097801F0400120
:1039C000A9B15649097801F03F013F290AD153496D
:1039D000098841F08001514A11804FF6FF71504A29
:1039E000118004E04D490988491C4C4A118000F0BF
:1039F000020169B34949097801F0400199B1474989
:103A0000098841F08001454A1180434924310988E1
:103A1000434A118040491031098821F002013E4A91
:103A20001032118014E000213C4A11803C4A118080
:103A30003A49098841F04001384A11800021364A4C
:103A400014321180111F098841F00201121F1180E8
:103A50003449097801F0800100294ED100F00101BC
:103A6000D1B13049097801F04001A9B12D49097857
:103A700001F03F013F290AD12A49098841F080011C
:103A8000284A11804FF6FF71274A118004E025492A
:103A90000988491C234A118000F0040169B32149B7
:103AA000097801F0400199B11E49098841F080016F
:103AB0001C4A11801849283109881B4A118016496F
:103AC0001031098821F02001134A1032118014E0CE
:103AD0000021144A1180144A11801249098841F0CA
:103AE0004001104A118000210B4A14321180111F2D
:103AF000098841F02001121F11800021064A11801F
:103B0000704700001601002018010020240C00401E
:103B10001A0100201C010020100800401E01002096
:103B200020010020220100202401002030B589B0AE
:103B300005460C4601214803FDF71AFB0121102020
:103B4000FDF716FB4FF47070ADF8200018208DF8CB
:103B5000230003208DF8220008A94848FDF74CF8FF
:103B6000ADF81850ADF814400020ADF81A00ADF8CB
:103B7000160005A94248FDF733FC6020ADF80400AB
:103B80000120ADF806000020ADF80A00ADF80C00E9
:103B900001A93B48FDF761FC01A93948FDF79FFCED
:103BA00001A93748FDF7E8FC01A93548FDF72FFDCD
:103BB00001213348FDF77CFF08213148FEF79CF8CE
:103BC00008212F48FEF7A1F808212D48FEF7AAF892
:103BD00008212B48FEF7AFF801212948FEF75CF8D1
:103BE00001212748FDF758FF09B030BD30B589B035
:103BF00005460C460121C802FDF7BAFA012104204E
:103C0000FDF7B6FA4FF48070ADF8200018208DF85B
:103C1000230003208DF8220008A91A48FCF7ECFFC6
:103C2000ADF81850ADF814400020ADF81A00ADF80A
:103C3000160005A91448FDF7D3FB6020ADF8040079
:103C40000120ADF806000020ADF80A00ADF80C0028
:103C500001A90D48FDF701FC01210B48FDF728FFE4
:103C600008210948FEF748F801210748FEF714F833
:103C700001210548FDF710FF09B030BD00100140DB
:103C80000034014000080140002C014000B587B01D
:103C900001210846FDF76CFA01210846FDF775FA87
:103CA00001210420FDF764FA01210820FDF760FAE4
:103CB00001216F48FDF771F84FF40040ADF80000A6
:103CC00004208DF8030069466A48FCF795FF082038
:103CD000ADF8000004208DF8030069466648FCF743
:103CE0008BFF04A8FDF7A8FE0020ADF810004FF6EA
:103CF000FF70ADF814000020ADF81600ADF812000A
:103D000004A94FF08040FDF76BFB00231A46032106
:103D10004FF08040FDF773FF01A8FDF7A0FE0A20D9
:103D2000ADF80C0001A94007FDF7EDFD0121880762
:103D3000FEF778F9012211469007FDF7C8FE002131
:103D40004FF08040FEF73CF901218807FDF7A4FE03
:103D500007B000BD00B587B001210846FDF708FA9D
:103D600001210220FDF711FA01210820FDF700FAD8
:103D700001214248FDF711F83020ADF80000042081
:103D80008DF8030069463C48FCF736FF04A8FDF7B0
:103D900053FE0020ADF810004FF6FF70ADF8140090
:103DA0000020ADF81600ADF8120004A93448FDF764
:103DB00017FB00231A4603213148FDF720FF01A815
:103DC000FDF74DFE0A20ADF80C0001A92C48FDF7C7
:103DD0009AFD01212A48FEF725F9012211462848BB
:103DE000FDF775FE00212648FEF7EAF80121244878
:103DF000FDF752FE07B000BD0146022902D003299B
:103E000012D108E04FF08042928C10B200224FF0A5
:103E100080439A840AE01A4A2432128810B200229F
:103E2000174B24331A8001E0002000BF00BF00EBD5
:103E3000400202EBC002112392FBF3F070471048DE
:103E4000103000880E481030008820F001000C4926
:103E50001031088070474FF08040008A4FF080405A
:103E6000008A20F001004FF0804108827047000076
:103E70000001180000080140000C014000081A0071
:103E800000040040FE49888000BFFD49098801F018
:103E900040010029F9D07047FA49088000BFF9496C
:103EA000091F098801F040010029F8D0704710B5BA
:103EB00086B0044601210846FDF75AF90121102079
:103EC000FDF756F901212020FDF752F901210805DF
:103ED000FDF75BF94FF48050ADF8140003208DF826
:103EE000160018208DF8170005A9E748FCF784FE96
:103EF0000420ADF814008DF8170005A9E348FCF77D
:103F00007BFE35208DF8000000208DF80100012097
:103F10008DF802008DF803006846FCF77CFB0194E5
:103F20000020ADF80800ADF80A00ADF80C00ADF8BF
:103F300010000C20ADF80E0001A9D148FEF7CDF815
:103F4000012240F22551CE48FEF75FF90121CC480D
:103F5000FEF74FF906B010BD10B540F22551C84824
:103F6000FEF738FA00283CD0C949097851B9C94947
:103F70000978491CC9B2C74A11700A2902DD01211A
:103F8000C34A1170BE498988C8B2C349097869B962
:103F9000C2490978FE2909D1C1490978FF2905D10B
:103FA0000121BD4A11700021BE4A1170BA49097839
:103FB00001290FD1BC49BB4A12788854B949097804
:103FC000491CB84A117011460978082902D100210C
:103FD000B14A1170B1490978B14A1170AF490870FE
:103FE00000BF10BD2DE9F047B0480068002801DD92
:103FF000002406E0AD480068002801DA022400E051
:104000000124AB480068002801DD002506E0A8482F
:104010000068002801DA022500E001254FF08E41FA
:10402000A448006804F0E8F9804604F065FB86B215
:10403000A149A248006804F0DFFB8146A04904F0D2
:10404000DBF9804604F058FB87B2FF20FFF71AFF28
:10405000FE20FFF717FF95490A68002A01DB114689
:1040600000E05142C8B2FFF70DFF2046FFF70AFFFC
:104070008F490A68002A01DB114600E05142C8B2AC
:10408000FFF700FF2846FFF7FDFE3812FFF7FAFEA4
:10409000F8B2FFF7F7FE3012FFF7F4FEF0B2FFF7C9
:1040A000F1FEBDE8F08710B5A520864908705A20BA
:1040B00048702E2088707D48006840428249086020
:1040C0007B480068404281490860002080490860C0
:1040D0000DE07D487E490968415C7D480068C01C50
:1040E000784A11547A480068401C79490860784839
:1040F00000680428EDDB0020754908600DE0734876
:1041000073490968415C72480068C01D6D4A1154CA
:104110006F480068401C6E4908606D4800680428BC
:10412000EDDB00206A4908600DE06A4868490968CB
:10413000415C674800680B30624A1154644800686B
:10414000401C63490860624800680428EDDB0020D9
:104150005F4908600DE060485D490968415C5C4862
:1041600000680F30574A115459480068401C58499C
:104170000860574800680228EDDB002054490860B9
:104180000DE0564852490968415C514800681130B9
:104190004C4A11544E480068401C4D4908604C4838
:1041A00000680228EDDB0020494908600DE04C481A
:1041B00047490968415C464800681330414A115438
:1041C00043480068401C4249086041480068022892
:1041D000EDDB00203E4908600DE042483C4909689B
:1041E000415C3B4800681530364A11543848006835
:1041F000401C37490860364800680228EDDB002083
:10420000334908600DE0384831490968415C30485D
:10421000006817302B4A11542D480068401C2C4967
:1042200008602B4800680228EDDB00202849086060
:104230000DE02E4826490968415C25480068193080
:10424000204A115422480068401C21490860204837
:1042500000680228EDDB00201D4908600DE02448BD
:104260001B490968415C1A4800681B30154A115403
:1042700017480068401C164908601548006839E076
:10428000005000400438014000100140001401407B
:10429000430000203B0100204400002039010020A1
:1042A0003A010020380100203A00002008000020D8
:1042B0000C000020640000200000C8425C000020C8
:1042C00000606A46EE060020300100203401002024
:1042D0002C0100202C000020780100207A01002011
:1042E0007C01002072010020740100207601002072
:1042F0007E0100200228B2DB00204D4908600DE05D
:104300004C484B490968415C494800681D304A4A9D
:10431000115447480068401C4549086044480068FB
:104320000228EDDB0020424908600DE04348404987
:104330000968415C3E4800681F303F4A11543C48C0
:104340000068401C3A490860394800680228EDDBE3
:104350000020374908600DE0394835490968415C5B
:10436000334800682130344A115431480068401CF9
:104370002F4908602E4800680428EDDB00202C49F6
:1043800008600DE02F482A490968415C2848006808
:104390002530294A115426480068401C24490860E9
:1043A000234800680428EDDB0020214908600DE067
:1043B00025481F490968415C1D48006829301E4A8C
:1043C00011541B480068401C1949086018480068CF
:1043D0000428EDDB0020164908600DE01B48144955
:1043E0000968415C124800682D30134A1154104886
:1043F0000068401C0E4908600D4800680428EDDB89
:1044000000200B4908600AE00B49094A1268885CE1
:10441000FFF742FD06480068401C05490860044853
:1044200000683128F0DB3221034801F0E5FF10BDC0
:104430002C01002080010020EE06002082010020D7
:10444000B4000020B8000020BC000020C000002004
:104450002DE9F84304460D4616461F46DDF8209028
:104460004FF0000814B10DB106B117B90120BDE835
:10447000F883601EC4B2681EC5B2701EC6B2781E34
:1044800087B201210846FCF773FE01210820FCF7E2
:104490006FFE01214806FCF778FE01214FF4EA1077
:1044A000FCF77BFC4FF40070ADF8000003208DF8A2
:1044B000020018208DF803006946FE48FCF79CFBBB
:1044C0004FF48070ADF8000048208DF80300694675
:1044D000F848FCF791FB0020F7490860084600689F
:1044E00040F00100086008E008F101001FFA80F8C0
:1044F000B8F1640F01DD0220B9E7EF48001D006844
:1045000000F001000028EFD0EB480068EA4908609D
:1045100008460068086008460068086008460068A9
:1045200040F010000860084600680860084600680F
:1045300008600020E0491C3108600846006840EA35
:10454000897008600846006840EA04600860084610
:10455000006840EA055008600846006840EA0640E6
:1045600008600846006838430860D348006820F0B7
:104570000100D149086009E008F101001FFA80F844
:104580004FF6F070804501DD032070E7CA48001D3A
:10459000006800F001000028EED1C848006840F033
:1045A0000100C6490860C5481C30006820F00100C1
:1045B000C2491C310860C1480C30006840F001005D
:1045C000BE490C310860BD48001D0068BB49091D8B
:1045D0000860BA4814300068B849143108600020F7
:1045E000B649403108600021B44844300160B34806
:1045F0001C30006840F00100B0491C310860AF4831
:1046000000680020AD490860AB481430006840F0F5
:104610000200A9491431086002231422002101205C
:10462000FDF79EFF002022E7F0B505460E46059CEB
:10463000A1480830006800F0806008B1002111E056
:104640009D480830006800F0006008B1012109E0D1
:1046500099480830006800F0805008B1022101E05C
:10466000FF20F0BD00279548803800EB011007605F
:104670001EB9C5F30A056D0502E025F06045ED00A1
:104680008E48803800EB0110006828438B4F803F34
:1046900007EB011738608948803800EB011000688B
:1046A00040EA86078548803800EB011007608348A0
:1046B000803800EB0110006840EA42077F488038EC
:1046C00000EB0110076003F00F037C48803800EB1B
:1046D0000110406820F00F077848803800EB011087
:1046E00047607648803800EB011040681843734FEC
:1046F000803F07EB01177860E0790006A77940EA70
:104700000740677940EA0727207907436B488038DC
:1047100000EB0110C760E0780006A77840EA074088
:10472000677840EA072027783843644F803F07EBDB
:104730000117B8606148803800EB0110006840F054
:1047400001075E48803800EB01100760084688E7E3
:104750000146002021B1012916D002293CD127E0D1
:10476000554A0832126802F001021043524A0832D8
:10477000126802F0020210434F4A0832126802F037
:10478000806240EA126029E04B4A0832126802F067
:1047900001021043484A0832126802F00202104334
:1047A000454A0832126802F0006240EA526015E0A1
:1047B000414A0832126802F0010210433E4A0832B0
:1047C000126802F0020210433B4A0832126802F0FB
:1047D000805240EA926001E0052000BF00BF7047B0
:1047E000014629B934480C30006800F003007047D6
:1047F000012905D130481030006800F00300F6E7C9
:104800000020F4E7F0B5DDE905542C4E503E06EBF0
:104810000016366806F00406167016783EB9274E64
:10482000503E06EB00163668760D0E6006E0234E0D
:10483000503E06EB00163668F6080E601F4E503EDE
:1048400006EB0016366806F002061E701B4E503E40
:1048500006EB0016766806F00F062E70174E503ED7
:1048600006EB0016B6682670144E503E06EB001696
:10487000B668360A6670114E503E06EB0016B668F2
:10488000360CA6700D4E503E06EB0016B668360E7E
:10489000E6700A4E503E06EB0016F6682671074E8B
:1048A000503E06EB0016F668360A6671034E503E1F
:1048B00006E00000000C014000640040006600407B
:1048C00006EB0016F668360CA671934E06EB001642
:1048D000F668360EE67130B9904E366846F020061E
:1048E0008E4F3E6009E0012807D18C4E361D366898
:1048F00046F02006894F3F1D3E60F0BD10B58AB0DE
:1049000087A103C9CDE9040102A806A907AB08AA3B
:10491000CDE9001009A90020FFF774FF00240FE083
:10492000072C04D102A8005D7F4908700AE002A8A4
:10493000005D04A9095D884200D003E0601CC4B298
:10494000072CEDDD00BF40F221110998884207D104
:104950007548007820B1754802990160039941605B
:104960000AB010BDF8B505460E46002433460022B5
:10497000114640F201600095FFF756FE074601E040
:10498000601C84B23846FFF7E3FE072803D040F6E8
:10499000FF708442F4DB40F6FF70844201DB0120AB
:1049A000F8BD0020FCE710B586B004460020FFF7F4
:1049B00017FF10B9002006B010BD02A803AB04AA6F
:1049C00005A9CDE900040020FFF71CFF0598122877
:1049D00005D19DF8100010B99DF80C0008B1002019
:1049E00002909DF80800E6E7F8B505460E4600245B
:1049F00033460022114640F201700095FFF714FE85
:104A0000074601E0601C84B23846FFF7A1FE072884
:104A100003D040F6FF708442F4DB40F6FF7084421E
:104A200001DB0120F8BD0020FCE7F8B506460D4685
:104A3000002408230022114630460095FFF7F4FDBC
:104A4000074601E0601C84B23846FFF781FE072864
:104A500003D040F6FF708442F4DB40F6FF708442DE
:104A600001DB0120F8BD0020FCE72DE9F0473048CC
:104A70000068002801DD002406E02D4800680028B9
:104A800001DA022400E001242A480068002801DD40
:104A9000002506E027480068002801DA022500E02A
:104AA00001254FF08E412448006803F0A5FC8046A4
:104AB00003F022FE86B221492148006803F09CFEE3
:104AC0008146204903F098FC804603F015FE87B22A
:104AD00017490868002801DB014600E041421A4AF4
:104AE00011701046447013490868002801DB014624
:104AF00000E04142144A91701046C57038121146C8
:104B000008714F7130128871CE714FF48070FFF7C9
:104B10008CFFBDE8F0870000B06500400C640040E9
:104B20000A0C0F13181E250042000020320000203E
:104B3000080000200C000020640000200000C84293
:104B40005C00002000606A464600002008B5012194
:104B50001420FCF70DFB0420ADF8000048208DF870
:104B600003006946F848FCF747F80A20ADF8000052
:104B700010208DF8030003208DF802006946F248EA
:104B8000FCF73AF81020ADF800008DF80300032080
:104B90008DF802006946ED48FCF72EF808BD38B5DF
:104BA0000446012000900020E9494870012000904F
:104BB0002DE0BDF80000204018B10120E549086053
:104BC00002E00020E34908600120E3490860052075
:104BD000FDF75DFC0020E149C1F890010520FDF7DB
:104BE00056FC0120DD49C1F89001DD48D0F80801EC
:104BF00030B1D7484078BDF800100843D449487018
:104C0000BDF800004FF6FF7101EA40000090BDF8CA
:104C10000000FF28CDDD1020FDF739FC38BD10B5B0
:104C20000020CC4908310860CE490878FFF7B7FF6B
:104C3000CC494878FFF7B3FF0120C949C1F88C017E
:104C4000C3484078732801D1002010BD0120FCE743
:104C50001CB500200190012000900020BD490831C2
:104C60000860C0490878FFF79AFFBE494878FFF707
:104C700096FF0220019035E00120009026E00120FF
:104C8000B54908600520FDF702FC0020B349C1F8D2
:104C900090010520FDF7FBFB0120B049C1F8900110
:104CA000AF48D0F8080150B1A9489DF80410405C05
:104CB000BDF800100843A6499DF804208854BDF8AB
:104CC00000004FF6FF7101EA40000090BDF80000BF
:104CD000FF28D4DD1020FDF7DAFB9DF80400401C0E
:104CE000C0B201909DF804000928C5DB0120994954
:104CF000083108601CBD002004E00021944A1154D2
:104D0000411CC8B20928F8DB704710B5FFF7F3FF64
:104D1000FFF79EFF8E48C0788D49097940EA01204F
:104D20009149088000240FE0904810F81400401EBC
:104D3000012101FA00F08C490988084010B9601C73
:104D4000C0B210BD601CC4B2102CEDDB0020F8E72F
:104D500001467F48405C704770B505460C46002010
:104D60007C49083108601020FDF791FB0120FFF716
:104D700016FF4220FFF713FF0020FFF710FF284621
:104D8000FFF70DFF2046FFF70AFF0020FFF707FFA0
:104D90000020FFF704FF0020FFF701FF0020FFF7CE
:104DA000FEFE01206E49C1F88C011020FDF76FFB5B
:104DB00070BD10B500206749083108601020FDF76C
:104DC00066FB0120FFF7EBFE4220FFF7E8FE002024
:104DD000FFF7E5FE0020FFF7E2FE0020FFF7DFFE11
:104DE00001205F49C1F88C011020FDF750FB10BD78
:104DF00010B500205749083108601020FDF747FB27
:104E00000120FFF7CCFE4320FFF7C9FE0020FFF78B
:104E1000C6FE0120FFF7C3FE0020FFF7C0FE002002
:104E2000FFF7BDFE0020FFF7BAFE0020FFF7B7FE38
:104E30000020FFF7B4FE01204949C1F88C01102081
:104E4000FDF725FB10BD10B5002042490831086070
:104E50000120FFF7A4FE4420FFF7A1FE0020FFF78A
:104E60009EFE0120FFF79BFE0320FFF798FE002027
:104E7000FFF795FE0020FFF792FE0020FFF78FFE60
:104E80000020FFF78CFE01203549C1F88C0110206D
:104E9000FDF7FDFA10BD10B500202E49083108605D
:104EA0001020FDF7F4FA0120FFF779FE4D20FFF7FF
:104EB00076FE0020FFF773FE0020FFF770FE012052
:104EC000FFF76DFE01202649C1F88C011020FDF787
:104ED000DEFA10BD10B500201E4908310860102010
:104EE000FDF7D5FA0120FFF75AFE4320FFF757FEE2
:104EF0000020FFF754FE0020FFF751FE5A20FFF775
:104F00004EFE5A20FFF74BFE5A20FFF748FE5A206C
:104F1000FFF745FE5A20FFF742FE01201049C1F875
:104F20008C011020FDF7B3FA10BD10B5FFF741FF5B
:104F3000FFF73FFFFFF73DFFFFF75AFFFFF783FF44
:104F4000FFF7C8FF10BD000000100140000801403D
:104F50002A070020840122429001214200002142C0
:104F6000000022423E0100203C01002040010020C0
:104F700070B506460C46154600F0A0F9304600F024
:104F800055FA00F0E0F9204600F050FA00F0DBF9A5
:104F9000284600F04BFA00F0D6F900F0B3F970BDE6
:104FA00070B504460D46002600F088F9204600F052
:104FB0003DFA00F0C8F90646284600F037FA00F03E
:104FC000C2F9064600F07AF9611CC8B200F02EFA68
:104FD00000F0B9F90646002000F057FA064600F046
:104FE00091F9304670BD2DE9F04105460E46144654
:104FF0001F4600F063F9284600F018FA00F0A3F904
:10500000304600F013FA00F09EF900F057F9691CE1
:10501000C8B200F00BFA00F096F94FF0000808E073
:10502000012000F032FA2070641C08F1010000F049
:10503000FF08781E4045F3DC002000F026FA2070BF
:1050400000F060F9BDE8F08110B500F01DF97521A0
:10505000D020FFF7A5FF71281AD100226B21D020A4
:10506000FFF786FF07221921D020FFF781FF0622D4
:105070001A21D020FFF77CFF18221B21D020FFF738
:1050800077FF18221C21D020FFF772FF002010BDEF
:105090000120FCE71CB504463C21D020FFF780FF2F
:1050A0008DF800003B21D020FFF77AFF8DF801003A
:1050B0009DF800009DF8011040EA012000B2664909
:1050C00008803E21D020FFF76BFF8DF802003D21C4
:1050D000D020FFF765FF8DF803009DF802009DF8D2
:1050E000031040EA012000B25C4908804021D02032
:1050F000FFF756FF8DF804003F21D020FFF750FF47
:105100008DF805009DF804009DF8051040EA012087
:1051100000B2534908801CBD1CB504464421D02070
:10512000FFF73EFF8DF800004321D020FFF738FF46
:105130008DF801009DF800009DF8011040EA012063
:1051400000B2484908804621D020FFF729FF8DF89A
:1051500002004521D020FFF723FF8DF803009DF8C2
:1051600002009DF8031040EA012000B23E49088089
:105170004821D020FFF714FF8DF804004721D020EC
:10518000FFF70EFF8DF805009DF804009DF805104F
:1051900040EA012000B2354908801CBD1CB5044618
:1051A00002223721D020FFF7E3FE0A20FDF793F912
:1051B00001220A211820FFF7DBFE0A20FDF78BF9F8
:1051C00003211820FFF7ECFE8DF8000004211820C1
:1051D000FFF7E6FE8DF801009DF800009DF8011034
:1051E00040EA012000B22249088005211820FFF77B
:1051F000D7FE8DF8020006211820FFF7D1FE8DF8AA
:1052000003009DF802009DF8031040EA012000B25F
:105210001849088007211820FFF7C2FE8DF8040006
:1052200008211820FFF7BCFE8DF805009DF804004A
:105230009DF8051040EA012000B20F4908801CBD0E
:1052400010B50E48FFF726FF0D48FFF765FF0D4824
:10525000FFF7A4FF10BD0000780100207A010020B4
:105260007C010020720100207401002076010020E2
:105270007E010020800100208201002060010020CA
:10528000660100206C01002008B501210820FBF711
:105290006FFF4FF44060ADF8000010208DF8030060
:1052A00002208DF8020069469148FBF7A5FC012019
:1052B000904908609049C1F8AC0108BD10B58C4810
:1052C000001D006820F470408949091D08600846E7
:1052D000006840F44050086001208649091D0860BC
:1052E0008549C1F8A8010420FDF7D1F800208149C3
:1052F000091D08600420FDF7CAF800207E49C1F8A6
:10530000A80110BD10B57A48001D006820F4704057
:105310007749091D08600846006840F4405008605D
:105320000020744908607449C1F8AC010420FDF7FD
:10533000AEF801206F4908606F49C1F8AC01042044
:10534000FDF7A5F810BD10B500246948001D0068E0
:1053500020F470406649091D08600846006840F462
:105360000040086001206349091D0860FDF78FF8BF
:1053700001206149C1F8A801FDF789F807E0601C28
:10538000C4B2FA2C03DDFFF7BDFF012010BD594860
:105390007C3800680028F2D15649086000BFF5E764
:1053A00010B50020534908605148001D006820F4E2
:1053B00070404F49091D08600846006840F440509D
:1053C000086000204C49C1F8AC010220FDF75FF8ED
:1053D0000120484908600220FDF759F8002046499D
:1053E000C1F8A80110BD10B500204249086040482E
:1053F000001D006820F470403D49091D0860084602
:10540000006840F44050086001203B49C1F8AC01FD
:105410000220FDF73CF80120364908600220FDF724
:1054200036F800203449C1F8A80110BD70B5044613
:105430002F48001D006820F470402D49091D0860A8
:105440000846006840F44050086000202949086080
:10545000002517E0E0092749091D08606006040ED1
:105460000220FDF714F801202349C1F8A801022009
:10547000FDF70DF800201F4908600220FDF707F82E
:10548000681CC5B2082DE5DB70BD70B5054600246B
:105490001748001D006820F470401549091D086078
:1054A0000846006840F400400860002616E000202E
:1054B000104908600220FCF7EAFF01200E49C1F8FC
:1054C000A8016006040E0B487C38006808B1601C17
:1054D000C4B20120FCF7DBFF701CC6B2082EE6DB6D
:1054E00015B9FFF780FF01E0FFF75AFF204670BDB6
:1054F000000C0140A8812142008021422DE9F05F8B
:1055000004468946FE49484603F076F90546FD49BA
:1055100002F072FFFC490860FC49FB48006803F098
:1055200037FA14D2F948F8490860F649F648006895
:1055300003F06AFA824602F033FF07460022F44B7A
:1055400002F030FA054602F03FF9814619E0F149D0
:10555000ED48006803F01CF913D2EE48EA490860F0
:10556000E849E948006803F04FFA824602F018FF64
:1055700007460022E64B02F015FA054602F024F930
:105580008146484602F00CFF05464FF06632E24B7A
:1055900002F008FA074602F0E5F8824602F014F934
:1055A000DE49086008460168DD4803F025F98346B6
:1055B0004FF0804102F08EFF8246DA4902F08AFF06
:1055C00080464FF07E5103F014FA064684F00047FF
:1055D0003146384603F010F9054603F071F8D24918
:1055E0000860CE480168CE4803F006F982464FF0C5
:1055F000804102F06FFF8046CA4902F06BFF074608
:105600004FF07E5102F0F8FE0646214603F0F4F812
:10561000054603F055F8C5490860B949484603F006
:10562000EBF80546B74902F0E7FEB7490860BDE868
:10563000F09F10B5002808DD4FF4E153BC4C2380E7
:10564000C0F5E153241F238008E04FF4E153B84C28
:10565000241F238000F5E153241D2380002909DD48
:105660004FF4E153B24C08342380C1F5E153241FB9
:10567000238008E04FF4E153AD4C241D238001F555
:10568000E153241D2380AB4C228010BDAA49096838
:105690004242914202DA4142A74A1160A649096892
:1056A000814201DDA4490860A4490968424291424F
:1056B00002DA4142A14A1160A0490968814201DD34
:1056C0009E49086070472DE9F05F04460D46601B57
:1056D0009B4908600846006803F02EF88346994805
:1056E0000168584603F088F8804695490968964A4B
:1056F0001268881A03F020F88346944801685846D7
:1057000003F07AF88146414602F076FE074690485B
:10571000006803F011F88246394602F06DFE064635
:1057200002F0CEFF8A49086008460068B0F5E15FE4
:1057300002DD4FF4E15008608548006810F5E15F34
:1057400002DA8448824908607D4800687E49086022
:105750007F480068BDE8F09F2DE9F05F04460D46E4
:10576000601B7D4908600846006802F0E5FF83463B
:1057700074480168584603F03FF880467649096846
:10578000764A1268881A02F0D7FF83466F4801688C
:10579000584603F031F88146414602F02DFE074697
:1057A0006F48006802F0C8FF8246394602F024FEC6
:1057B000064602F085FF6A49086008460068B0F5B1
:1057C000E15F02DD4FF4E15008606548006810F5C4
:1057D000E15F02DA5F48624908605F4800685F493C
:1057E00008605F480068BDE8F09F2DE9F0410224A1
:1057F0005C480078B0B95C480078002856D15B4816
:105800000078012852D15A498978C1F13C0002F050
:1058100093FF584908605649C87802F0A5FF5649D9
:10582000086043E04F48007801283FD15349096898
:10583000A1F1800002F080FF054651490968A1F1FD
:10584000800002F079FF0646604202F075FF0746CD
:10585000294602F09DFF08D2204602F06DFF074660
:10586000294603F095F800D20025604202F064FF5B
:105870000746314602F08CFF08D2204602F05CFF5A
:105880000746314603F084F800D2002685F0004731
:105890004FF08141384602F01DFE374908604FF055
:1058A0008141304602F016FE32490860BDE8F081C1
:1058B00070B501213348FCF7B8FB00286AD00121FC
:1058C0003048FCF7C3FB3048007808B9012000E0FD
:1058D00000202D4908702D48007801280BD12C4854
:1058E0000078401CC0B22A490870022803D1002069
:1058F0000870264908702448007801287ED14AE0C3
:10590000000060410000C844280000200040EC4432
:1059100000002C400000A04466A64C40C4000020BB
:1059200048E17A3EE17A943E180000201C000020F5
:1059300038340140342C01401000002014000020B5
:10594000A40100206C000020AC01002068000020B1
:10595000A8010020E0E3FFFF98010020A001002043
:105960009C0100200500002044000020430000208E
:1059700032000020240000202000002078000020B9
:105980007C00002000100040840100203100002035
:105990003000002037E05C48007848B95B48007868
:1059A000012805D15A485B490A680260496841608C
:1059B000FDF7D3FC054602F0BFFE044656480168D9
:1059C000204602F019FD544908604FF07E515348BB
:1059D000006802F011FD514904460860504902F088
:1059E0003BFE49D14E494C48006802F073FD044625
:1059F00002F066FE4B490860002000E004E04649E2
:105A000008604649086037E047480078A0BB03209B
:105A1000FEF7F2F9454908600220FEF7EDF9444926
:105A20000860FFF7E2FE4348006880F0004421462A
:105A300041480068FFF762FD404801683C48006843
:105A4000FFF78AFE3E4908603E4801683748006813
:105A5000FFF739FE3C49086041F6F420FFF716FED7
:105A60003A48006802F02CFE044622463648016897
:105A700033480068FFF7DDFD70BD70B53220FDF7DB
:105A800022F90546012D07D13148007808B90120D7
:105A900000E000202E490870022D07D12D48007823
:105AA00008B9012000E000202A490870FDF77AF9C2
:105AB0000446012C07D12748007808B9012000E0EE
:105AC00000202449087070BD014642F21C529142E8
:105AD00003DB1F4A1278012A0DD1012000221E4B40
